{
  "contractName": "Alef",
  "abi": [
    {
      "inputs": [
        {
          "internalType": "address",
          "name": "_daiContractAddress",
          "type": "address"
        },
        {
          "internalType": "address",
          "name": "_cDaiContractAddress",
          "type": "address"
        },
        {
          "internalType": "address",
          "name": "_cEthContractAddress",
          "type": "address"
        }
      ],
      "stateMutability": "nonpayable",
      "type": "constructor"
    },
    {
      "anonymous": false,
      "inputs": [
        {
          "indexed": true,
          "internalType": "address",
          "name": "academy",
          "type": "address"
        },
        {
          "indexed": false,
          "internalType": "bytes32",
          "name": "action",
          "type": "bytes32"
        }
      ],
      "name": "AcademyAction",
      "type": "event"
    },
    {
      "anonymous": false,
      "inputs": [
        {
          "indexed": true,
          "internalType": "address",
          "name": "academy",
          "type": "address"
        },
        {
          "indexed": true,
          "internalType": "uint256",
          "name": "course",
          "type": "uint256"
        },
        {
          "indexed": true,
          "internalType": "uint256",
          "name": "price",
          "type": "uint256"
        }
      ],
      "name": "CourseCreated",
      "type": "event"
    },
    {
      "anonymous": false,
      "inputs": [
        {
          "indexed": false,
          "internalType": "bytes32",
          "name": "courseId",
          "type": "bytes32"
        }
      ],
      "name": "CourseCreated",
      "type": "event"
    },
    {
      "anonymous": false,
      "inputs": [
        {
          "indexed": true,
          "internalType": "address",
          "name": "academy",
          "type": "address"
        },
        {
          "indexed": true,
          "internalType": "uint256",
          "name": "course",
          "type": "uint256"
        },
        {
          "indexed": false,
          "internalType": "bytes32",
          "name": "action",
          "type": "bytes32"
        }
      ],
      "name": "CourseRemoved",
      "type": "event"
    },
    {
      "anonymous": false,
      "inputs": [
        {
          "indexed": true,
          "internalType": "address",
          "name": "sponsor",
          "type": "address"
        },
        {
          "indexed": false,
          "internalType": "uint256",
          "name": "amt",
          "type": "uint256"
        }
      ],
      "name": "NewDeposit",
      "type": "event"
    },
    {
      "anonymous": false,
      "inputs": [
        {
          "indexed": true,
          "internalType": "address",
          "name": "owner",
          "type": "address"
        },
        {
          "indexed": true,
          "internalType": "address",
          "name": "newOwner",
          "type": "address"
        }
      ],
      "name": "OwnerChanged",
      "type": "event"
    },
    {
      "anonymous": false,
      "inputs": [
        {
          "indexed": false,
          "internalType": "address",
          "name": "account",
          "type": "address"
        }
      ],
      "name": "Paused",
      "type": "event"
    },
    {
      "anonymous": false,
      "inputs": [
        {
          "indexed": true,
          "internalType": "uint256",
          "name": "studentID",
          "type": "uint256"
        },
        {
          "indexed": true,
          "internalType": "address",
          "name": "academy",
          "type": "address"
        },
        {
          "indexed": true,
          "internalType": "uint256",
          "name": "course",
          "type": "uint256"
        }
      ],
      "name": "ScholarshipCreated",
      "type": "event"
    },
    {
      "anonymous": false,
      "inputs": [
        {
          "indexed": true,
          "internalType": "address",
          "name": "sponsor",
          "type": "address"
        },
        {
          "indexed": false,
          "internalType": "bytes32",
          "name": "action",
          "type": "bytes32"
        }
      ],
      "name": "SponsorAction",
      "type": "event"
    },
    {
      "anonymous": false,
      "inputs": [
        {
          "indexed": true,
          "internalType": "address",
          "name": "sponsor",
          "type": "address"
        },
        {
          "indexed": false,
          "internalType": "uint256",
          "name": "amt",
          "type": "uint256"
        }
      ],
      "name": "SponsorWithdrawal",
      "type": "event"
    },
    {
      "anonymous": false,
      "inputs": [
        {
          "indexed": false,
          "internalType": "address",
          "name": "account",
          "type": "address"
        }
      ],
      "name": "Unpaused",
      "type": "event"
    },
    {
      "anonymous": false,
      "inputs": [
        {
          "indexed": true,
          "internalType": "address",
          "name": "academy",
          "type": "address"
        },
        {
          "indexed": false,
          "internalType": "uint256",
          "name": "amt",
          "type": "uint256"
        }
      ],
      "name": "academyWithdrawal",
      "type": "event"
    },
    {
      "inputs": [],
      "name": "contractCdaiBalance",
      "outputs": [
        {
          "internalType": "uint256",
          "name": "",
          "type": "uint256"
        }
      ],
      "stateMutability": "view",
      "type": "function"
    },
    {
      "inputs": [],
      "name": "contractCethBalance",
      "outputs": [
        {
          "internalType": "uint256",
          "name": "",
          "type": "uint256"
        }
      ],
      "stateMutability": "view",
      "type": "function"
    },
    {
      "inputs": [],
      "name": "contractDaiBalance",
      "outputs": [
        {
          "internalType": "uint256",
          "name": "",
          "type": "uint256"
        }
      ],
      "stateMutability": "view",
      "type": "function"
    },
    {
      "inputs": [],
      "name": "contractEtherBalance",
      "outputs": [
        {
          "internalType": "uint256",
          "name": "",
          "type": "uint256"
        }
      ],
      "stateMutability": "view",
      "type": "function"
    },
    {
      "inputs": [
        {
          "internalType": "bytes32",
          "name": "_courseId",
          "type": "bytes32"
        }
      ],
      "name": "getCourseOwner",
      "outputs": [
        {
          "internalType": "address",
          "name": "",
          "type": "address"
        }
      ],
      "stateMutability": "view",
      "type": "function"
    },
    {
      "inputs": [
        {
          "internalType": "bytes32",
          "name": "_courseId",
          "type": "bytes32"
        }
      ],
      "name": "getCoursePrice",
      "outputs": [
        {
          "internalType": "uint256",
          "name": "",
          "type": "uint256"
        }
      ],
      "stateMutability": "view",
      "type": "function"
    },
    {
      "inputs": [
        {
          "internalType": "bytes32",
          "name": "_courseId",
          "type": "bytes32"
        }
      ],
      "name": "getCourseState",
      "outputs": [
        {
          "internalType": "bool",
          "name": "",
          "type": "bool"
        }
      ],
      "stateMutability": "view",
      "type": "function"
    },
    {
      "inputs": [
        {
          "internalType": "address",
          "name": "_address",
          "type": "address"
        }
      ],
      "name": "getSponsorCdaiBalance",
      "outputs": [
        {
          "internalType": "uint256",
          "name": "",
          "type": "uint256"
        }
      ],
      "stateMutability": "view",
      "type": "function"
    },
    {
      "inputs": [
        {
          "internalType": "address",
          "name": "_address",
          "type": "address"
        }
      ],
      "name": "getSponsorCetherBalance",
      "outputs": [
        {
          "internalType": "uint256",
          "name": "",
          "type": "uint256"
        }
      ],
      "stateMutability": "view",
      "type": "function"
    },
    {
      "inputs": [
        {
          "internalType": "address",
          "name": "_address",
          "type": "address"
        }
      ],
      "name": "getSponsorDaiBalance",
      "outputs": [
        {
          "internalType": "uint256",
          "name": "",
          "type": "uint256"
        }
      ],
      "stateMutability": "view",
      "type": "function"
    },
    {
      "inputs": [
        {
          "internalType": "address",
          "name": "_address",
          "type": "address"
        }
      ],
      "name": "getSponsorEtherBalance",
      "outputs": [
        {
          "internalType": "uint256",
          "name": "",
          "type": "uint256"
        }
      ],
      "stateMutability": "view",
      "type": "function"
    },
    {
      "inputs": [
        {
          "internalType": "address",
          "name": "_address",
          "type": "address"
        }
      ],
      "name": "getSponsorStatus",
      "outputs": [
        {
          "internalType": "bool",
          "name": "",
          "type": "bool"
        }
      ],
      "stateMutability": "view",
      "type": "function"
    },
    {
      "inputs": [
        {
          "internalType": "address",
          "name": "_academy",
          "type": "address"
        }
      ],
      "name": "getStudentBalance",
      "outputs": [
        {
          "internalType": "uint256",
          "name": "",
          "type": "uint256"
        }
      ],
      "stateMutability": "view",
      "type": "function"
    },
    {
      "inputs": [
        {
          "internalType": "address",
          "name": "_academy",
          "type": "address"
        }
      ],
      "name": "getStudentStatus",
      "outputs": [
        {
          "internalType": "bool",
          "name": "",
          "type": "bool"
        }
      ],
      "stateMutability": "view",
      "type": "function"
    },
    {
      "inputs": [
        {
          "internalType": "address payable",
          "name": "_newOwner",
          "type": "address"
        }
      ],
      "name": "modifyOwner",
      "outputs": [
        {
          "internalType": "bool",
          "name": "",
          "type": "bool"
        }
      ],
      "stateMutability": "nonpayable",
      "type": "function"
    },
    {
      "inputs": [],
      "name": "paused",
      "outputs": [
        {
          "internalType": "bool",
          "name": "",
          "type": "bool"
        }
      ],
      "stateMutability": "view",
      "type": "function"
    },
    {
      "inputs": [
        {
          "internalType": "address",
          "name": "_newCDAIaddress",
          "type": "address"
        }
      ],
      "name": "setCDAIcontractAddress",
      "outputs": [
        {
          "internalType": "address",
          "name": "",
          "type": "address"
        }
      ],
      "stateMutability": "nonpayable",
      "type": "function"
    },
    {
      "inputs": [
        {
          "internalType": "address",
          "name": "_newCETHaddress",
          "type": "address"
        }
      ],
      "name": "setCETHcontractAddress",
      "outputs": [
        {
          "internalType": "address",
          "name": "",
          "type": "address"
        }
      ],
      "stateMutability": "nonpayable",
      "type": "function"
    },
    {
      "inputs": [
        {
          "internalType": "address",
          "name": "_newDAIaddress",
          "type": "address"
        }
      ],
      "name": "setDAIcontractAddress",
      "outputs": [
        {
          "internalType": "address",
          "name": "",
          "type": "address"
        }
      ],
      "stateMutability": "nonpayable",
      "type": "function"
    },
    {
      "inputs": [
        {
          "internalType": "address",
          "name": "_sponsor",
          "type": "address"
        }
      ],
      "name": "addSponsor",
      "outputs": [],
      "stateMutability": "nonpayable",
      "type": "function"
    },
    {
      "inputs": [
        {
          "internalType": "address",
          "name": "_address",
          "type": "address"
        }
      ],
      "name": "enableSponsor",
      "outputs": [],
      "stateMutability": "nonpayable",
      "type": "function"
    },
    {
      "inputs": [
        {
          "internalType": "address",
          "name": "_address",
          "type": "address"
        }
      ],
      "name": "disableSponsor",
      "outputs": [],
      "stateMutability": "nonpayable",
      "type": "function"
    },
    {
      "inputs": [],
      "name": "sponsorEthDeposit",
      "outputs": [],
      "stateMutability": "payable",
      "type": "function"
    },
    {
      "inputs": [
        {
          "internalType": "address",
          "name": "_sponsor",
          "type": "address"
        }
      ],
      "name": "fundSponsor",
      "outputs": [],
      "stateMutability": "payable",
      "type": "function"
    },
    {
      "inputs": [
        {
          "internalType": "uint256",
          "name": "_amount",
          "type": "uint256"
        }
      ],
      "name": "sponsorWithdrawal",
      "outputs": [],
      "stateMutability": "payable",
      "type": "function"
    },
    {
      "inputs": [
        {
          "internalType": "uint256",
          "name": "_price",
          "type": "uint256"
        }
      ],
      "name": "addCourse",
      "outputs": [],
      "stateMutability": "nonpayable",
      "type": "function"
    },
    {
      "inputs": [
        {
          "internalType": "address",
          "name": "academy",
          "type": "address"
        },
        {
          "internalType": "bytes32",
          "name": "_courseId",
          "type": "bytes32"
        },
        {
          "internalType": "uint64",
          "name": "_newId",
          "type": "uint64"
        }
      ],
      "name": "changeCourseID",
      "outputs": [],
      "stateMutability": "nonpayable",
      "type": "function"
    },
    {
      "inputs": [
        {
          "internalType": "bytes32",
          "name": "_courseId",
          "type": "bytes32"
        },
        {
          "internalType": "uint256",
          "name": "_newPrice",
          "type": "uint256"
        }
      ],
      "name": "changeCoursePrice",
      "outputs": [],
      "stateMutability": "nonpayable",
      "type": "function"
    },
    {
      "inputs": [
        {
          "internalType": "bytes32",
          "name": "_courseAddress",
          "type": "bytes32"
        }
      ],
      "name": "removeCourse",
      "outputs": [],
      "stateMutability": "nonpayable",
      "type": "function"
    }
  ],
  "bytecode": "0x608060405234801561001057600080fd5b506040516117773803806117778339818101604052606081101561003357600080fd5b50805160208201516040909201516000805460ff60a01b196001600160a01b0319918216331716909155600180546001600160a01b0394851690831617905560028054948416948216949094179093556003805492909116919092161790556116d6806100a16000396000f3fe6080604052600436106101c25760003560e01c80636f1e0ec2116100f7578063c67abc1b11610095578063dab80d6f11610064578063dab80d6f1461065a578063e4f9eaee1461068d578063eb093c9414610695578063ffbc5224146106aa576101c2565b8063c67abc1b14610597578063cfd6a3e5146105ca578063d36843d3146105f4578063da40969514610627576101c2565b80638ab15c6b116100d15780638ab15c6b146104ff5780638ebaed0f146105255780639d84bf9114610558578063b662817514610582576101c2565b80636f1e0ec21461048d578063718a4bca146104c05780637e509aa4146104ea576101c2565b80634b9f2084116101645780635c975abb1161013e5780635c975abb146103e2578063601c730e146103f757806361901c1314610427578063659e403c14610444576101c2565b80634b9f20841461032b5780634fcabf7f1461037a57806352c1ec33146103af576101c2565b80631fff0ee8116101a05780631fff0ee8146102865780633ab3321c1461029b57806340cb3462146102ce578063486e19e314610301576101c2565b8063063d5180146101c757806308b9ddd81461020e5780631bed98a314610253575b600080fd5b3480156101d357600080fd5b506101fa600480360360208110156101ea57600080fd5b50356001600160a01b03166106d4565b604080519115158252519081900360200190f35b34801561021a57600080fd5b506102416004803603602081101561023157600080fd5b50356001600160a01b03166106f2565b60408051918252519081900360200190f35b34801561025f57600080fd5b506101fa6004803603602081101561027657600080fd5b50356001600160a01b0316610710565b34801561029257600080fd5b5061024161072e565b3480156102a757600080fd5b50610241600480360360208110156102be57600080fd5b50356001600160a01b0316610734565b3480156102da57600080fd5b506101fa600480360360208110156102f157600080fd5b50356001600160a01b0316610752565b34801561030d57600080fd5b506102416004803603602081101561032457600080fd5b50356107d7565b34801561033757600080fd5b5061035e6004803603602081101561034e57600080fd5b50356001600160a01b03166107ec565b604080516001600160a01b039092168252519081900360200190f35b34801561038657600080fd5b506103ad6004803603602081101561039d57600080fd5b50356001600160a01b03166108cd565b005b3480156103bb57600080fd5b50610241600480360360208110156103d257600080fd5b50356001600160a01b0316610a30565b3480156103ee57600080fd5b506101fa610a4e565b34801561040357600080fd5b506103ad6004803603604081101561041a57600080fd5b5080359060200135610a5e565b6103ad6004803603602081101561043d57600080fd5b5035610ae5565b34801561045057600080fd5b506103ad6004803603606081101561046757600080fd5b5080356001600160a01b0316906020810135906040013567ffffffffffffffff16610c0b565b34801561049957600080fd5b506103ad600480360360208110156104b057600080fd5b50356001600160a01b0316610cb8565b3480156104cc57600080fd5b506103ad600480360360208110156104e357600080fd5b5035610e00565b3480156104f657600080fd5b50610241610ea3565b6103ad6004803603602081101561051557600080fd5b50356001600160a01b0316610ea9565b34801561053157600080fd5b5061035e6004803603602081101561054857600080fd5b50356001600160a01b0316610ffe565b34801561056457600080fd5b506103ad6004803603602081101561057b57600080fd5b50356110df565b34801561058e57600080fd5b50610241611198565b3480156105a357600080fd5b50610241600480360360208110156105ba57600080fd5b50356001600160a01b031661119e565b3480156105d657600080fd5b5061035e600480360360208110156105ed57600080fd5b50356111bc565b34801561060057600080fd5b506102416004803603602081101561061757600080fd5b50356001600160a01b03166111d7565b34801561063357600080fd5b5061035e6004803603602081101561064a57600080fd5b50356001600160a01b03166111f5565b34801561066657600080fd5b506103ad6004803603602081101561067d57600080fd5b50356001600160a01b03166112d6565b6103ad611423565b3480156106a157600080fd5b50610241611548565b3480156106b657600080fd5b506101fa600480360360208110156106cd57600080fd5b503561154e565b6001600160a01b031660009081526008602052604090205460ff1690565b6001600160a01b031660009081526009602052604090206001015490565b6001600160a01b031660009081526009602052604090205460ff1690565b60045481565b6001600160a01b031660009081526008602052604090206002015490565b600080546001600160a01b031633146107b2576040805162461bcd60e51b815260206004820181905260248201527f46756e6374696f6e207265737472696374656420746f20746865206f776e6572604482015290519081900360640190fd5b50600080546001600160a01b0383166001600160a01b03199091161790556001919050565b6000908152600a602052604090206001015490565b600080546001600160a01b0316331461084c576040805162461bcd60e51b815260206004820181905260248201527f46756e6374696f6e207265737472696374656420746f20746865206f776e6572604482015290519081900360640190fd5b600054600160a01b900460ff166108aa576040805162461bcd60e51b815260206004820152601460248201527f5061757361626c653a206e6f7420706175736564000000000000000000000000604482015290519081900360640190fd5b50600180546001600160a01b0319166001600160a01b0392831617908190551690565b6000546001600160a01b0316331461092c576040805162461bcd60e51b815260206004820181905260248201527f46756e6374696f6e207265737472696374656420746f20746865206f776e6572604482015290519081900360640190fd5b6000546001600160a01b0382811691161480159061096757506001600160a01b03811660009081526008602052604090205460ff1615156001145b6109b8576040805162461bcd60e51b815260206004820152601060248201527f616c72656164792064697361626c656400000000000000000000000000000000604482015290519081900360640190fd5b6001600160a01b038116600081815260086020908152604091829020805460ff1916905581517f64697361626c6564000000000000000000000000000000000000000000000000815291517f19c3f740eab2ba5a0df1439ffdf3012f000901e6fccf54f5e82136ee53f03f689281900390910190a250565b6001600160a01b031660009081526008602052604090206004015490565b600054600160a01b900460ff1690565b6000828152600a6020526040902060020154610100900467ffffffffffffffff16610ad0576040805162461bcd60e51b815260206004820152601a60248201527f69732070726f766964656420646f6573206e6f74206578697374000000000000604482015290519081900360640190fd5b6000918252600a602052604090912060010155565b3360009081526008602052604090205460ff161515600114610b0657600080fd5b33600090815260086020526040902060010154811115610b6d576040805162461bcd60e51b815260206004820152601360248201527f696e737566666963656e742062616c616e636500000000000000000000000000604482015290519081900360640190fd5b33600090815260086020526040902060010154610b90908263ffffffff61156616565b33600081815260086020526040808220600101939093559151909183156108fc02918491818181858888f19350505050158015610bd1573d6000803e3d6000fd5b5060408051828152905133917f6a2abc69da23696e8d0fe1dbae2078c98ec2c23197a9c0e224589a8e085a5e04919081900360200190a250565b6000828152600a6020526040902060020154610100900467ffffffffffffffff16610c7d576040805162461bcd60e51b815260206004820152601a60248201527f69732070726f766964656420646f6573206e6f74206578697374000000000000604482015290519081900360640190fd5b6000918252600a6020526040909120600201805467ffffffffffffffff9092166101000268ffffffffffffffff001990921691909117905550565b6000546001600160a01b03163314610d17576040805162461bcd60e51b815260206004820181905260248201527f46756e6374696f6e207265737472696374656420746f20746865206f776e6572604482015290519081900360640190fd5b6001600160a01b03811660009081526008602052604090205460ff1615610d85576040805162461bcd60e51b815260206004820152600f60248201527f616c726561647920656e61626c65640000000000000000000000000000000000604482015290519081900360640190fd5b6001600160a01b038116600081815260086020908152604091829020805460ff1916600117905581517f656e61626c656400000000000000000000000000000000000000000000000000815291517f19c3f740eab2ba5a0df1439ffdf3012f000901e6fccf54f5e82136ee53f03f689281900390910190a250565b6040805133606081901b6020808401919091524260348085019190915284518085039091018152605484018086528151918301919091206000818152600a9093529185902080546001600160a01b031916909317835560018084018790556002909301805460ff19169093179092559081905291517f12f8c7e89296500b51c887bf8ae3206f90c32db65195c189b266f7443049326b9181900360740190a15050565b60055481565b600054600160a01b900460ff1615610f08576040805162461bcd60e51b815260206004820152601060248201527f5061757361626c653a2070617573656400000000000000000000000000000000604482015290519081900360640190fd5b6001600160a01b03811660009081526008602052604090205460ff161515600114610f7a576040805162461bcd60e51b815260206004820152601660248201527f73706f6e736f7220646f6573206e6f7420657869737400000000000000000000604482015290519081900360640190fd5b6001600160a01b038116600090815260086020526040902060010154610fa6903463ffffffff6115af16565b6001600160a01b038216600081815260086020908152604091829020600101939093558051348152905191927f2cb77763bc1e8490c1a904905c4d74b4269919aca114464f4bb4d911e60de36492918290030190a250565b600080546001600160a01b0316331461105e576040805162461bcd60e51b815260206004820181905260248201527f46756e6374696f6e207265737472696374656420746f20746865206f776e6572604482015290519081900360640190fd5b600054600160a01b900460ff166110bc576040805162461bcd60e51b815260206004820152601460248201527f5061757361626c653a206e6f7420706175736564000000000000000000000000604482015290519081900360640190fd5b50600380546001600160a01b0319166001600160a01b0392831617908190551690565b6000818152600a60205260409020546001600160a01b031633148061110e57506000546001600160a01b031633145b61115f576040805162461bcd60e51b815260206004820152600d60248201527f6e6f7420746865206f776e657200000000000000000000000000000000000000604482015290519081900360640190fd5b6000908152600a6020526040812080546001600160a01b03191681556001810191909155600201805468ffffffffffffffffff19169055565b60075481565b6001600160a01b031660009081526008602052604090206003015490565b6000908152600a60205260409020546001600160a01b031690565b6001600160a01b031660009081526008602052604090206001015490565b600080546001600160a01b03163314611255576040805162461bcd60e51b815260206004820181905260248201527f46756e6374696f6e207265737472696374656420746f20746865206f776e6572604482015290519081900360640190fd5b600054600160a01b900460ff166112b3576040805162461bcd60e51b815260206004820152601460248201527f5061757361626c653a206e6f7420706175736564000000000000000000000000604482015290519081900360640190fd5b50600280546001600160a01b0319166001600160a01b0392831617908190551690565b6000546001600160a01b03163314611335576040805162461bcd60e51b815260206004820181905260248201527f46756e6374696f6e207265737472696374656420746f20746865206f776e6572604482015290519081900360640190fd5b6001600160a01b03811660009081526008602052604090205460ff161515600114156113a8576040805162461bcd60e51b815260206004820152601160248201527f616c726561647920612073706f6e736f72000000000000000000000000000000604482015290519081900360640190fd5b6001600160a01b038116600081815260086020908152604091829020805460ff1916600117905581517f6164646564000000000000000000000000000000000000000000000000000000815291517f19c3f740eab2ba5a0df1439ffdf3012f000901e6fccf54f5e82136ee53f03f689281900390910190a250565b600054600160a01b900460ff1615611482576040805162461bcd60e51b815260206004820152601060248201527f5061757361626c653a2070617573656400000000000000000000000000000000604482015290519081900360640190fd5b600034116114d7576040805162461bcd60e51b815260206004820152601060248201527f63616e6e6f74206465706f736974203000000000000000000000000000000000604482015290519081900360640190fd5b336000908152600860205260409020600101546114fa903463ffffffff6115af16565b33600081815260086020908152604091829020600101939093558051348152905191927f2cb77763bc1e8490c1a904905c4d74b4269919aca114464f4bb4d911e60de36492918290030190a2565b60065481565b6000908152600a602052604090206002015460ff1690565b60006115a883836040518060400160405280601e81526020017f536166654d6174683a207375627472616374696f6e206f766572666c6f770000815250611609565b9392505050565b6000828201838110156115a8576040805162461bcd60e51b815260206004820152601b60248201527f536166654d6174683a206164646974696f6e206f766572666c6f770000000000604482015290519081900360640190fd5b600081848411156116985760405162461bcd60e51b81526004018080602001828103825283818151815260200191508051906020019080838360005b8381101561165d578181015183820152602001611645565b50505050905090810190601f16801561168a5780820380516001836020036101000a031916815260200191505b509250505060405180910390fd5b50505090039056fea264697066735822122061d6812c865ed563f24edaeb363b85a67c4c6e87182d49880ee792dd2d58e80864736f6c63430006000033",
  "source": "pragma solidity >=0.6.0 <0.7.0;\n\nimport \"@openzeppelin/contracts-ethereum-package/contracts/math/SafeMath.sol\";\nimport \"./Storage.sol\";\n\n\ncontract Alef is Storage {\n\n\n  using SafeMath for uint256;\n\n\n  constructor (address _daiContractAddress, address _cDaiContractAddress, address _cEthContractAddress) public {\n    // must set the 3 erc addresses\n    daiContractAddress = _daiContractAddress;\n    cDaiContractAddress = _cDaiContractAddress;\n    cEthContractAddress = _cEthContractAddress;\n  }\n\n\n  function addSponsor(address _sponsor) public onlyOwner {\n\n    // add a new sponsor\n\n    require (sponsors[_sponsor].status != true, \"already a sponsor\");\n\n    sponsors[_sponsor].status = true;\n\n    emit SponsorAction(_sponsor, 'added');\n  }\n\n\n\n  function enableSponsor(address _address) public onlyOwner {\n\n    // enable a sponsor\n    //@-> require: _sponsor status == not active\n    //@-> emits: address enabled and action as string\n\n    require (sponsors[_address].status == false,\"already enabled\");\n\n    sponsors[_address].status = true;\n\n    emit SponsorAction(_address, \"enabled\");\n\n  }\n\n\n  function disableSponsor(address _address) public onlyOwner {\n\n    // disable sponsor\n    //@-> require: _sponsor != owner and _sponsor status == active\n    //@-> emits: address disabled and action as string\n    //@-> notice: _sponsor is not cancelled. Sponsor balance remains saved\n\n    require (_address != owner && sponsors[_address].status == true,\"already disabled\") ;\n\n    sponsors[_address].status = false;\n\n    emit SponsorAction(_address, 'disabled');\n  }\n\n\n\n  function sponsorEthDeposit() public payable whenNotPaused {\n\n    // increase sponsor balance\n\n    require (msg.value > 0,\"cannot deposit 0\");\n\n    sponsors[msg.sender].etherBalance = sponsors[msg.sender].etherBalance.add(msg.value);\n\n    emit NewDeposit(msg.sender, msg.value);\n  }\n\n\n  function fundSponsor (address _sponsor) public payable whenNotPaused {\n\n    // anyone can fund a sponsor\n\n    require (sponsors[_sponsor].status == true,\"sponsor does not exist\");\n\n    sponsors[_sponsor].etherBalance = sponsors[_sponsor].etherBalance.add(msg.value);\n\n    emit NewDeposit(_sponsor, msg.value); //emits the sponsor that has been funded and the amount\n\n  }\n\n\n  //Withdraw from the sponsor's balance\n  function sponsorWithdrawal(uint256 _amount) public payable isSponsor {\n\n    require (sponsors[msg.sender].etherBalance >= _amount, \"insufficent balance\");\n\n    sponsors[msg.sender].etherBalance = sponsors[msg.sender].etherBalance.sub(_amount);\n\n    msg.sender.transfer(_amount);\n\n    emit SponsorWithdrawal(msg.sender, _amount);\n\n  }\n\n\n  //Lets an academy add a new course\n  function addCourse(uint256 _price) public {\n\n    bytes32 id = keccak256(abi.encodePacked(msg.sender,now)); // Creates a unique id hashing msg.sender and block timestamp\n\n    courses[id].courseOwner = msg.sender;\n    courses[id].price = _price;\n    courses[id].courseState = true;\n\n    emit CourseCreated (id); // Emits the course id\n\n  }\n\n\n  //Change course id\n  function changeCourseID(address academy ,bytes32 _courseId, uint64 _newId) public {\n    require (courses[_courseId].id > 0,\"is provided does not exist\"); // require empty struct\n\n    // REMOVE THIS it was unused so i just rush to make it works\n    academy = address(0x2e3984eA734Bdc4d1f6e7767d3d56CA90dA20Df9);\n    courses[_courseId].id = _newId;\n  }\n\n  //Change the ID of a course\n  function changeCoursePrice(bytes32 _courseId, uint _newPrice) public {\n\n    require (courses[_courseId].id > 0,\"is provided does not exist\"); // require empty struct\n    courses[_courseId].price = _newPrice;\n\n  }\n\n\n  function removeCourse (bytes32 _courseAddress) public {\n\n    require (courses[_courseAddress].courseOwner == msg.sender || owner == msg.sender,\"not the owner\"); // only the course owner or the contract owner can remove a course\n    delete (courses[_courseAddress]); //delete struct\n\n  }\n\n\n}\n",
  "sourcePath": "/home/gab/storage/git/Alef/contracts/Alef.sol",
  "compiler": {
    "name": "solc",
    "version": "0.6.0+commit.26b70077.Emscripten.clang"
  },
  "schemaVersion": "3.0.23",
  "updatedAt": "2020-06-01T13:59:26.442Z",
  "devdoc": {
    "methods": {
      "paused()": {
        "details": "Returns true if the contract is paused, and false otherwise."
      }
    }
  },
  "userdoc": {
    "methods": {}
  }
}