{
  "contractName": "Ownable",
  "abi": [
    {
      "inputs": [],
      "stateMutability": "nonpayable",
      "type": "constructor"
    },
    {
      "inputs": [
        {
          "internalType": "address payable",
          "name": "_newOwner",
          "type": "address"
        }
      ],
      "name": "modifyOwner",
      "outputs": [
        {
          "internalType": "bool",
          "name": "",
          "type": "bool"
        }
      ],
      "stateMutability": "nonpayable",
      "type": "function"
    }
  ],
  "bytecode": "0x608060405234801561001057600080fd5b50600080546001600160a01b0319163317905561017e806100326000396000f3fe608060405234801561001057600080fd5b506004361061002b5760003560e01c806340cb346214610030575b600080fd5b6100636004803603602081101561004657600080fd5b503573ffffffffffffffffffffffffffffffffffffffff16610077565b604080519115158252519081900360200190f35b6000805473ffffffffffffffffffffffffffffffffffffffff1633146100fe57604080517f08c379a000000000000000000000000000000000000000000000000000000000815260206004820181905260248201527f46756e6374696f6e207265737472696374656420746f20746865206f776e6572604482015290519081900360640190fd5b506000805473ffffffffffffffffffffffffffffffffffffffff83167fffffffffffffffffffffffff0000000000000000000000000000000000000000909116179055600191905056fea264697066735822122089c646f4d6a5fe6c6c8048b2c1ed0b59c345a0bfc9273e4376bda90511b4ae5864736f6c63430006000033",
  "source": "pragma solidity ^0.6.0;\n\ncontract Ownable{\n    address payable owner;\n\n    constructor () public {\n        owner = msg.sender;\n    }\n\n    modifier onlyOwner {\n        require (msg.sender == owner, \"Function restricted to the owner\");\n        _;\n    }\n\n    function modifyOwner (address payable _newOwner) onlyOwner public returns (bool){\n      owner = _newOwner;\n      return true;\n    }\n}\n",
  "sourcePath": "/home/gab/storage/git/Alef/contracts/Safe/Ownable.sol",
  "compiler": {
    "name": "solc",
    "version": "0.6.0+commit.26b70077.Emscripten.clang"
  },
  "schemaVersion": "3.0.23",
  "updatedAt": "2020-06-01T13:55:47.971Z",
  "devdoc": {
    "methods": {}
  },
  "userdoc": {
    "methods": {}
  }
}